{
  "contractName": "Student_Contract",
  "abi": [
    {
      "inputs": [],
      "name": "curr",
      "outputs": [
        {
          "internalType": "uint256",
          "name": "",
          "type": "uint256"
        }
      ],
      "stateMutability": "view",
      "type": "function",
      "constant": true
    },
    {
      "inputs": [
        {
          "internalType": "uint256",
          "name": "_studentId",
          "type": "uint256"
        },
        {
          "internalType": "string",
          "name": "_name",
          "type": "string"
        },
        {
          "internalType": "uint256",
          "name": "_age",
          "type": "uint256"
        },
        {
          "internalType": "bool",
          "name": "_gender",
          "type": "bool"
        }
      ],
      "name": "setStudent",
      "outputs": [],
      "stateMutability": "nonpayable",
      "type": "function"
    },
    {
      "inputs": [
        {
          "internalType": "uint256",
          "name": "_id",
          "type": "uint256"
        }
      ],
      "name": "getStudent",
      "outputs": [
        {
          "internalType": "string",
          "name": "",
          "type": "string"
        },
        {
          "internalType": "uint256",
          "name": "",
          "type": "uint256"
        },
        {
          "internalType": "bool",
          "name": "",
          "type": "bool"
        }
      ],
      "stateMutability": "view",
      "type": "function",
      "constant": true
    }
  ],
  "bytecode": "0x60806040526000805534801561001457600080fd5b5061071b806100246000396000f3fe608060405234801561001057600080fd5b50600436106100415760003560e01c8063642f9163146100465780638103aa4514610078578063ce6695be14610096575b600080fd5b610060600480360381019061005b919061034f565b6100b2565b60405161006f9392919061044a565b60405180910390f35b6100806101a1565b60405161008d9190610488565b60405180910390f35b6100b060048036038101906100ab9190610378565b6101a7565b005b60606000806001600085815260200190815260200160002060010160016000868152602001908152602001600020600201546001600087815260200190815260200160002060030160009054906101000a900460ff168280546101149061056d565b80601f01602080910402602001604051908101604052809291908181526020018280546101409061056d565b801561018d5780601f106101625761010080835404028352916020019161018d565b820191906000526020600020905b81548152906001019060200180831161017057829003601f168201915b505050505092509250925092509193909250565b60005481565b6000808154809291906101b9906105d0565b91905055506000600160008681526020019081526020016000209050838160010190805190602001906101ed92919061021a565b50828160020181905550818160030160006101000a81548160ff0219169083151502179055505050505050565b8280546102269061056d565b90600052602060002090601f016020900481019282610248576000855561028f565b82601f1061026157805160ff191683800117855561028f565b8280016001018555821561028f579182015b8281111561028e578251825591602001919060010190610273565b5b50905061029c91906102a0565b5090565b5b808211156102b95760008160009055506001016102a1565b5090565b60006102d06102cb846104c8565b6104a3565b9050828152602081018484840111156102e857600080fd5b6102f384828561052b565b509392505050565b60008135905061030a816106b7565b92915050565b600082601f83011261032157600080fd5b81356103318482602086016102bd565b91505092915050565b600081359050610349816106ce565b92915050565b60006020828403121561036157600080fd5b600061036f8482850161033a565b91505092915050565b6000806000806080858703121561038e57600080fd5b600061039c8782880161033a565b945050602085013567ffffffffffffffff8111156103b957600080fd5b6103c587828801610310565b93505060406103d68782880161033a565b92505060606103e7878288016102fb565b91505092959194509250565b6103fc81610515565b82525050565b600061040d826104f9565b6104178185610504565b935061042781856020860161053a565b610430816106a6565b840191505092915050565b61044481610521565b82525050565b600060608201905081810360008301526104648186610402565b9050610473602083018561043b565b61048060408301846103f3565b949350505050565b600060208201905061049d600083018461043b565b92915050565b60006104ad6104be565b90506104b9828261059f565b919050565b6000604051905090565b600067ffffffffffffffff8211156104e3576104e2610677565b5b6104ec826106a6565b9050602081019050919050565b600081519050919050565b600082825260208201905092915050565b60008115159050919050565b6000819050919050565b82818337600083830152505050565b60005b8381101561055857808201518184015260208101905061053d565b83811115610567576000848401525b50505050565b6000600282049050600182168061058557607f821691505b6020821081141561059957610598610648565b5b50919050565b6105a8826106a6565b810181811067ffffffffffffffff821117156105c7576105c6610677565b5b80604052505050565b60006105db82610521565b91507fffffffffffffffffffffffffffffffffffffffffffffffffffffffffffffffff82141561060e5761060d610619565b5b600182019050919050565b7f4e487b7100000000000000000000000000000000000000000000000000000000600052601160045260246000fd5b7f4e487b7100000000000000000000000000000000000000000000000000000000600052602260045260246000fd5b7f4e487b7100000000000000000000000000000000000000000000000000000000600052604160045260246000fd5b6000601f19601f8301169050919050565b6106c081610515565b81146106cb57600080fd5b50565b6106d781610521565b81146106e257600080fd5b5056fea2646970667358221220055795f62408a08a3277babca7dee974d0a14105c19e54915eec3a46c22a778264736f6c63430008010033",
  "immutableReferences": {},
  "source": "// SPDX-License-Identifier: MIT\npragma solidity >=0.4.22 <0.9.0;\n\ncontract Student_Contract {\n    uint public curr = 0;\n\n    struct Student {\n        uint id;\n        string name;\n        uint age;\n        bool gender;\n    }\n\n    mapping(uint => Student) studentInfo;\n\n    function setStudent(uint _studentId, string memory _name, uint _age, bool _gender) public {\n        curr++;\n        Student storage student = studentInfo[_studentId];\n\n        student.name = _name;\n        student.age = _age;\n        student.gender = _gender;\n    }\n\n    function getStudent(uint _id) public view returns (string memory, uint, bool) {\n        return (\n            studentInfo[_id].name,\n            studentInfo[_id].age,\n            studentInfo[_id].gender\n        );\n    }\n}",
  "sourcePath": "/Users/sanghoonchin/Documents/playground/temp/contracts/Students.sol",
  "compiler": {
    "name": "solc",
    "version": "0.8.1+commit.df193b15.Emscripten.clang"
  },
  "schemaVersion": "3.4.3",
  "updatedAt": "2021-10-28T07:59:17.808Z",
  "networkType": "ethereum",
  "devdoc": {
    "kind": "dev",
    "methods": {},
    "version": 1
  },
  "userdoc": {
    "kind": "user",
    "methods": {},
    "version": 1
  }
}