{
  "contractName": "Token",
  "abi": [
    {
      "inputs": [
        {
          "internalType": "string",
          "name": "_name",
          "type": "string"
        },
        {
          "internalType": "string",
          "name": "_symbol",
          "type": "string"
        },
        {
          "internalType": "uint256",
          "name": "_decimal",
          "type": "uint256"
        },
        {
          "internalType": "uint256",
          "name": "_totalSupply",
          "type": "uint256"
        }
      ],
      "stateMutability": "nonpayable",
      "type": "constructor"
    },
    {
      "anonymous": false,
      "inputs": [
        {
          "indexed": true,
          "internalType": "address",
          "name": "owner",
          "type": "address"
        },
        {
          "indexed": true,
          "internalType": "address",
          "name": "spender",
          "type": "address"
        },
        {
          "indexed": false,
          "internalType": "uint256",
          "name": "value",
          "type": "uint256"
        }
      ],
      "name": "Approval",
      "type": "event"
    },
    {
      "anonymous": false,
      "inputs": [
        {
          "indexed": true,
          "internalType": "address",
          "name": "from",
          "type": "address"
        },
        {
          "indexed": true,
          "internalType": "address",
          "name": "to",
          "type": "address"
        },
        {
          "indexed": false,
          "internalType": "uint256",
          "name": "value",
          "type": "uint256"
        }
      ],
      "name": "Transfer",
      "type": "event"
    },
    {
      "inputs": [
        {
          "internalType": "address",
          "name": "",
          "type": "address"
        },
        {
          "internalType": "address",
          "name": "",
          "type": "address"
        }
      ],
      "name": "allowance",
      "outputs": [
        {
          "internalType": "uint256",
          "name": "",
          "type": "uint256"
        }
      ],
      "stateMutability": "view",
      "type": "function",
      "constant": true
    },
    {
      "inputs": [
        {
          "internalType": "address",
          "name": "",
          "type": "address"
        }
      ],
      "name": "balanceOf",
      "outputs": [
        {
          "internalType": "uint256",
          "name": "",
          "type": "uint256"
        }
      ],
      "stateMutability": "view",
      "type": "function",
      "constant": true
    },
    {
      "inputs": [],
      "name": "decimals",
      "outputs": [
        {
          "internalType": "uint256",
          "name": "",
          "type": "uint256"
        }
      ],
      "stateMutability": "view",
      "type": "function",
      "constant": true
    },
    {
      "inputs": [],
      "name": "name",
      "outputs": [
        {
          "internalType": "string",
          "name": "",
          "type": "string"
        }
      ],
      "stateMutability": "view",
      "type": "function",
      "constant": true
    },
    {
      "inputs": [],
      "name": "symbol",
      "outputs": [
        {
          "internalType": "string",
          "name": "",
          "type": "string"
        }
      ],
      "stateMutability": "view",
      "type": "function",
      "constant": true
    },
    {
      "inputs": [
        {
          "internalType": "address",
          "name": "_to",
          "type": "address"
        },
        {
          "internalType": "uint256",
          "name": "_value",
          "type": "uint256"
        }
      ],
      "name": "transfer",
      "outputs": [
        {
          "internalType": "bool",
          "name": "success",
          "type": "bool"
        }
      ],
      "stateMutability": "nonpayable",
      "type": "function"
    },
    {
      "inputs": [
        {
          "internalType": "address",
          "name": "_from",
          "type": "address"
        },
        {
          "internalType": "address",
          "name": "_to",
          "type": "address"
        },
        {
          "internalType": "uint256",
          "name": "_value",
          "type": "uint256"
        }
      ],
      "name": "transferFrom",
      "outputs": [
        {
          "internalType": "bool",
          "name": "",
          "type": "bool"
        }
      ],
      "stateMutability": "nonpayable",
      "type": "function"
    },
    {
      "inputs": [
        {
          "internalType": "address",
          "name": "_spender",
          "type": "address"
        },
        {
          "internalType": "uint256",
          "name": "_value",
          "type": "uint256"
        }
      ],
      "name": "approve",
      "outputs": [
        {
          "internalType": "bool",
          "name": "",
          "type": "bool"
        }
      ],
      "stateMutability": "nonpayable",
      "type": "function"
    }
  ],
  "bytecode": "0x60806040523480156200001157600080fd5b50604051620011b0380380620011b0833981810160405281019062000037919062000200565b83600090805190602001906200004f929190620000c7565b50826001908051906020019062000068929190620000c7565b508160028190555080600381905550600354600460003373ffffffffffffffffffffffffffffffffffffffff1673ffffffffffffffffffffffffffffffffffffffff168152602001908152602001600020819055505050505062000432565b828054620000d5906200033d565b90600052602060002090601f016020900481019282620000f9576000855562000145565b82601f106200011457805160ff191683800117855562000145565b8280016001018555821562000145579182015b828111156200014457825182559160200191906001019062000127565b5b50905062000154919062000158565b5090565b5b808211156200017357600081600090555060010162000159565b5090565b60006200018e6200018884620002c7565b6200029e565b905082815260208101848484011115620001a757600080fd5b620001b484828562000307565b509392505050565b600082601f830112620001ce57600080fd5b8151620001e084826020860162000177565b91505092915050565b600081519050620001fa8162000418565b92915050565b600080600080608085870312156200021757600080fd5b600085015167ffffffffffffffff8111156200023257600080fd5b6200024087828801620001bc565b945050602085015167ffffffffffffffff8111156200025e57600080fd5b6200026c87828801620001bc565b93505060406200027f87828801620001e9565b92505060606200029287828801620001e9565b91505092959194509250565b6000620002aa620002bd565b9050620002b8828262000373565b919050565b6000604051905090565b600067ffffffffffffffff821115620002e557620002e4620003d8565b5b620002f08262000407565b9050602081019050919050565b6000819050919050565b60005b83811015620003275780820151818401526020810190506200030a565b8381111562000337576000848401525b50505050565b600060028204905060018216806200035657607f821691505b602082108114156200036d576200036c620003a9565b5b50919050565b6200037e8262000407565b810181811067ffffffffffffffff82111715620003a0576200039f620003d8565b5b80604052505050565b7f4e487b7100000000000000000000000000000000000000000000000000000000600052602260045260246000fd5b7f4e487b7100000000000000000000000000000000000000000000000000000000600052604160045260246000fd5b6000601f19601f8301169050919050565b6200042381620002fd565b81146200042f57600080fd5b50565b610d6e80620004426000396000f3fe608060405234801561001057600080fd5b50600436106100885760003560e01c806370a082311161005b57806370a082311461012957806395d89b4114610159578063a9059cbb14610177578063dd62ed3e146101a757610088565b806306fdde031461008d578063095ea7b3146100ab57806323b872dd146100db578063313ce5671461010b575b600080fd5b6100956101d7565b6040516100a29190610b0b565b60405180910390f35b6100c560048036038101906100c09190610a5d565b610265565b6040516100d29190610af0565b60405180910390f35b6100f560048036038101906100f09190610a0e565b610390565b6040516101029190610af0565b60405180910390f35b610113610585565b6040516101209190610b2d565b60405180910390f35b610143600480360381019061013e91906109a9565b61058b565b6040516101509190610b2d565b60405180910390f35b6101616105a3565b60405161016e9190610b0b565b60405180910390f35b610191600480360381019061018c9190610a5d565b610631565b60405161019e9190610af0565b60405180910390f35b6101c160048036038101906101bc91906109d2565b61079a565b6040516101ce9190610b2d565b60405180910390f35b600080546101e490610c69565b80601f016020809104026020016040519081016040528092919081815260200182805461021090610c69565b801561025d5780601f106102325761010080835404028352916020019161025d565b820191906000526020600020905b81548152906001019060200180831161024057829003601f168201915b505050505081565b60008073ffffffffffffffffffffffffffffffffffffffff168373ffffffffffffffffffffffffffffffffffffffff1614156102a057600080fd5b81600560003373ffffffffffffffffffffffffffffffffffffffff1673ffffffffffffffffffffffffffffffffffffffff16815260200190815260200160002060008573ffffffffffffffffffffffffffffffffffffffff1673ffffffffffffffffffffffffffffffffffffffff168152602001908152602001600020819055508273ffffffffffffffffffffffffffffffffffffffff163373ffffffffffffffffffffffffffffffffffffffff167f8c5be1e5ebec7d5bd14f71427d1e84f3dd0314c0f7b2291e5b200ac8c7c3b9258460405161037e9190610b2d565b60405180910390a36001905092915050565b6000600460008573ffffffffffffffffffffffffffffffffffffffff1673ffffffffffffffffffffffffffffffffffffffff168152602001908152602001600020548211156103de57600080fd5b600560008573ffffffffffffffffffffffffffffffffffffffff1673ffffffffffffffffffffffffffffffffffffffff16815260200190815260200160002060003373ffffffffffffffffffffffffffffffffffffffff1673ffffffffffffffffffffffffffffffffffffffff1681526020019081526020016000205482111561046757600080fd5b81600560008673ffffffffffffffffffffffffffffffffffffffff1673ffffffffffffffffffffffffffffffffffffffff16815260200190815260200160002060003373ffffffffffffffffffffffffffffffffffffffff1673ffffffffffffffffffffffffffffffffffffffff168152602001908152602001600020546104ef9190610bba565b600560008673ffffffffffffffffffffffffffffffffffffffff1673ffffffffffffffffffffffffffffffffffffffff16815260200190815260200160002060003373ffffffffffffffffffffffffffffffffffffffff1673ffffffffffffffffffffffffffffffffffffffff1681526020019081526020016000208190555061057a8484846107bf565b600190509392505050565b60025481565b60046020528060005260406000206000915090505481565b600180546105b090610c69565b80601f01602080910402602001604051908101604052809291908181526020018280546105dc90610c69565b80156106295780601f106105fe57610100808354040283529160200191610629565b820191906000526020600020905b81548152906001019060200180831161060c57829003601f168201915b505050505081565b600081600460003373ffffffffffffffffffffffffffffffffffffffff1673ffffffffffffffffffffffffffffffffffffffff16815260200190815260200160002054101561067f57600080fd5b81600460003373ffffffffffffffffffffffffffffffffffffffff1673ffffffffffffffffffffffffffffffffffffffff16815260200190815260200160002060008282546106ce9190610bba565b9250508190555081600460008573ffffffffffffffffffffffffffffffffffffffff1673ffffffffffffffffffffffffffffffffffffffff16815260200190815260200160002060008282546107249190610b64565b925050819055508273ffffffffffffffffffffffffffffffffffffffff163373ffffffffffffffffffffffffffffffffffffffff167fddf252ad1be2c89b69c2b068fc378daa952ba7f163c4a11628f55a4df523b3ef846040516107889190610b2d565b60405180910390a36001905092915050565b6005602052816000526040600020602052806000526040600020600091509150505481565b600073ffffffffffffffffffffffffffffffffffffffff168273ffffffffffffffffffffffffffffffffffffffff1614156107f957600080fd5b80600460008573ffffffffffffffffffffffffffffffffffffffff1673ffffffffffffffffffffffffffffffffffffffff168152602001908152602001600020546108449190610bba565b600460008573ffffffffffffffffffffffffffffffffffffffff1673ffffffffffffffffffffffffffffffffffffffff1681526020019081526020016000208190555080600460008473ffffffffffffffffffffffffffffffffffffffff1673ffffffffffffffffffffffffffffffffffffffff168152602001908152602001600020546108d29190610b64565b600460008473ffffffffffffffffffffffffffffffffffffffff1673ffffffffffffffffffffffffffffffffffffffff168152602001908152602001600020819055508173ffffffffffffffffffffffffffffffffffffffff168373ffffffffffffffffffffffffffffffffffffffff167fddf252ad1be2c89b69c2b068fc378daa952ba7f163c4a11628f55a4df523b3ef836040516109729190610b2d565b60405180910390a3505050565b60008135905061098e81610d0a565b92915050565b6000813590506109a381610d21565b92915050565b6000602082840312156109bb57600080fd5b60006109c98482850161097f565b91505092915050565b600080604083850312156109e557600080fd5b60006109f38582860161097f565b9250506020610a048582860161097f565b9150509250929050565b600080600060608486031215610a2357600080fd5b6000610a318682870161097f565b9350506020610a428682870161097f565b9250506040610a5386828701610994565b9150509250925092565b60008060408385031215610a7057600080fd5b6000610a7e8582860161097f565b9250506020610a8f85828601610994565b9150509250929050565b610aa281610c00565b82525050565b6000610ab382610b48565b610abd8185610b53565b9350610acd818560208601610c36565b610ad681610cf9565b840191505092915050565b610aea81610c2c565b82525050565b6000602082019050610b056000830184610a99565b92915050565b60006020820190508181036000830152610b258184610aa8565b905092915050565b6000602082019050610b426000830184610ae1565b92915050565b600081519050919050565b600082825260208201905092915050565b6000610b6f82610c2c565b9150610b7a83610c2c565b9250827fffffffffffffffffffffffffffffffffffffffffffffffffffffffffffffffff03821115610baf57610bae610c9b565b5b828201905092915050565b6000610bc582610c2c565b9150610bd083610c2c565b925082821015610be357610be2610c9b565b5b828203905092915050565b6000610bf982610c0c565b9050919050565b60008115159050919050565b600073ffffffffffffffffffffffffffffffffffffffff82169050919050565b6000819050919050565b60005b83811015610c54578082015181840152602081019050610c39565b83811115610c63576000848401525b50505050565b60006002820490506001821680610c8157607f821691505b60208210811415610c9557610c94610cca565b5b50919050565b7f4e487b7100000000000000000000000000000000000000000000000000000000600052601160045260246000fd5b7f4e487b7100000000000000000000000000000000000000000000000000000000600052602260045260246000fd5b6000601f19601f8301169050919050565b610d1381610bee565b8114610d1e57600080fd5b50565b610d2a81610c2c565b8114610d3557600080fd5b5056fea26469706673582212208577737d1a7a9e11e69fcbcf0f0b08ecd973a81c92c84ac1afe2613bd78ad49864736f6c63430008010033",
  "immutableReferences": {},
  "source": "// SPDX-License-Identifier: MIT\npragma solidity >=0.4.24;\n\ncontract Token {\n    string public name;\n    string public symbol;\n    uint256 public decimals;\n    uint256 totalSupply;\n\n    mapping(address => uint256) public balanceOf;\n    mapping(address => mapping(address => uint256)) public allowance;\n\n    // indexed keyword => logged event      \n    event Transfer(address indexed from, address indexed to, uint256 value);\n    event Approval(address indexed owner, address indexed spender, uint256 value);\n\n    constructor(string memory _name, string memory _symbol, uint _decimal, uint _totalSupply){\n        name = _name;\n        symbol = _symbol;\n        decimals = _decimal;\n        totalSupply = _totalSupply;\n        balanceOf[msg.sender] = totalSupply;\n    }\n\n    function transfer(address _to, uint256 _value) external returns (bool success){\n        // msg.sender will be the person who currently connecting with the contract.\n        require(balanceOf[msg.sender] >= _value);\n        balanceOf[msg.sender] -= _value;\n        balanceOf[_to] += _value;\n        emit Transfer(msg.sender, _to, _value);\n        return true;\n    }\n\n    // Internal function transfer can only be called by this contract\n    function _transfer(address _from, address _to, uint256 _value) internal {\n        // Ensure sending is to valid address! 0x0 address cane be used to burn() \n        require(_to != address(0));\n        balanceOf[_from] = balanceOf[_from] - (_value);\n        balanceOf[_to] = balanceOf[_to] + (_value);\n        emit Transfer(_from, _to, _value);\n    }\n\n    function transferFrom(address _from, address _to, uint256 _value) external returns (bool){\n        require(_value <= balanceOf[_from]);\n        require(_value <= allowance[_from][msg.sender]);\n        allowance[_from][msg.sender] = allowance[_from][msg.sender] - (_value);\n        _transfer(_from, _to, _value);\n        return true;\n    } \n\n    function approve(address _spender, uint256 _value) external returns (bool) {\n        require(_spender != address(0));\n        allowance[msg.sender][_spender] = _value;\n        emit Approval(msg.sender, _spender, _value);\n        return true;\n    }\n}",
  "sourcePath": "/Users/sanghoonchin/Documents/playground/temp/contracts/Token.sol",
  "compiler": {
    "name": "solc",
    "version": "0.8.1+commit.df193b15.Emscripten.clang"
  },
  "schemaVersion": "3.4.3",
  "updatedAt": "2021-10-28T09:19:14.442Z",
  "networkType": "ethereum",
  "devdoc": {
    "kind": "dev",
    "methods": {},
    "version": 1
  },
  "userdoc": {
    "kind": "user",
    "methods": {},
    "version": 1
  }
}